{
  "_format": "hh-sol-artifact-1",
  "contractName": "NFT",
  "sourceName": "contracts/NFT.sol",
  "abi": [
    {
      "inputs": [],
      "stateMutability": "nonpayable",
      "type": "constructor"
    },
    {
      "anonymous": false,
      "inputs": [
        {
          "indexed": true,
          "internalType": "address",
          "name": "owner",
          "type": "address"
        },
        {
          "indexed": true,
          "internalType": "address",
          "name": "approved",
          "type": "address"
        },
        {
          "indexed": true,
          "internalType": "uint256",
          "name": "tokenId",
          "type": "uint256"
        }
      ],
      "name": "Approval",
      "type": "event"
    },
    {
      "anonymous": false,
      "inputs": [
        {
          "indexed": true,
          "internalType": "address",
          "name": "owner",
          "type": "address"
        },
        {
          "indexed": true,
          "internalType": "address",
          "name": "operator",
          "type": "address"
        },
        {
          "indexed": false,
          "internalType": "bool",
          "name": "approved",
          "type": "bool"
        }
      ],
      "name": "ApprovalForAll",
      "type": "event"
    },
    {
      "anonymous": false,
      "inputs": [
        {
          "indexed": true,
          "internalType": "address",
          "name": "delegator",
          "type": "address"
        },
        {
          "indexed": true,
          "internalType": "address",
          "name": "fromDelegate",
          "type": "address"
        },
        {
          "indexed": true,
          "internalType": "address",
          "name": "toDelegate",
          "type": "address"
        }
      ],
      "name": "DelegateChanged",
      "type": "event"
    },
    {
      "anonymous": false,
      "inputs": [
        {
          "indexed": true,
          "internalType": "address",
          "name": "delegate",
          "type": "address"
        },
        {
          "indexed": false,
          "internalType": "uint256",
          "name": "previousBalance",
          "type": "uint256"
        },
        {
          "indexed": false,
          "internalType": "uint256",
          "name": "newBalance",
          "type": "uint256"
        }
      ],
      "name": "DelegateVotesChanged",
      "type": "event"
    },
    {
      "anonymous": false,
      "inputs": [
        {
          "indexed": true,
          "internalType": "address",
          "name": "previousOwner",
          "type": "address"
        },
        {
          "indexed": true,
          "internalType": "address",
          "name": "newOwner",
          "type": "address"
        }
      ],
      "name": "OwnershipTransferred",
      "type": "event"
    },
    {
      "anonymous": false,
      "inputs": [
        {
          "indexed": true,
          "internalType": "address",
          "name": "from",
          "type": "address"
        },
        {
          "indexed": true,
          "internalType": "address",
          "name": "to",
          "type": "address"
        },
        {
          "indexed": true,
          "internalType": "uint256",
          "name": "tokenId",
          "type": "uint256"
        }
      ],
      "name": "Transfer",
      "type": "event"
    },
    {
      "inputs": [],
      "name": "DOMAIN_SEPARATOR",
      "outputs": [
        {
          "internalType": "bytes32",
          "name": "",
          "type": "bytes32"
        }
      ],
      "stateMutability": "view",
      "type": "function"
    },
    {
      "inputs": [
        {
          "internalType": "address",
          "name": "to",
          "type": "address"
        },
        {
          "internalType": "uint256",
          "name": "tokenId",
          "type": "uint256"
        }
      ],
      "name": "approve",
      "outputs": [],
      "stateMutability": "nonpayable",
      "type": "function"
    },
    {
      "inputs": [
        {
          "internalType": "address",
          "name": "owner",
          "type": "address"
        }
      ],
      "name": "balanceOf",
      "outputs": [
        {
          "internalType": "uint256",
          "name": "",
          "type": "uint256"
        }
      ],
      "stateMutability": "view",
      "type": "function"
    },
    {
      "inputs": [
        {
          "internalType": "address",
          "name": "delegatee",
          "type": "address"
        }
      ],
      "name": "delegate",
      "outputs": [],
      "stateMutability": "nonpayable",
      "type": "function"
    },
    {
      "inputs": [
        {
          "internalType": "address",
          "name": "delegatee",
          "type": "address"
        },
        {
          "internalType": "uint256",
          "name": "nonce",
          "type": "uint256"
        },
        {
          "internalType": "uint256",
          "name": "expiry",
          "type": "uint256"
        },
        {
          "internalType": "uint8",
          "name": "v",
          "type": "uint8"
        },
        {
          "internalType": "bytes32",
          "name": "r",
          "type": "bytes32"
        },
        {
          "internalType": "bytes32",
          "name": "s",
          "type": "bytes32"
        }
      ],
      "name": "delegateBySig",
      "outputs": [],
      "stateMutability": "nonpayable",
      "type": "function"
    },
    {
      "inputs": [
        {
          "internalType": "address",
          "name": "account",
          "type": "address"
        }
      ],
      "name": "delegates",
      "outputs": [
        {
          "internalType": "address",
          "name": "",
          "type": "address"
        }
      ],
      "stateMutability": "view",
      "type": "function"
    },
    {
      "inputs": [
        {
          "internalType": "uint256",
          "name": "tokenId",
          "type": "uint256"
        }
      ],
      "name": "getApproved",
      "outputs": [
        {
          "internalType": "address",
          "name": "",
          "type": "address"
        }
      ],
      "stateMutability": "view",
      "type": "function"
    },
    {
      "inputs": [
        {
          "internalType": "uint256",
          "name": "blockNumber",
          "type": "uint256"
        }
      ],
      "name": "getPastTotalSupply",
      "outputs": [
        {
          "internalType": "uint256",
          "name": "",
          "type": "uint256"
        }
      ],
      "stateMutability": "view",
      "type": "function"
    },
    {
      "inputs": [
        {
          "internalType": "address",
          "name": "account",
          "type": "address"
        },
        {
          "internalType": "uint256",
          "name": "blockNumber",
          "type": "uint256"
        }
      ],
      "name": "getPastVotes",
      "outputs": [
        {
          "internalType": "uint256",
          "name": "",
          "type": "uint256"
        }
      ],
      "stateMutability": "view",
      "type": "function"
    },
    {
      "inputs": [
        {
          "internalType": "address",
          "name": "account",
          "type": "address"
        }
      ],
      "name": "getVotes",
      "outputs": [
        {
          "internalType": "uint256",
          "name": "",
          "type": "uint256"
        }
      ],
      "stateMutability": "view",
      "type": "function"
    },
    {
      "inputs": [
        {
          "internalType": "address",
          "name": "owner",
          "type": "address"
        },
        {
          "internalType": "address",
          "name": "operator",
          "type": "address"
        }
      ],
      "name": "isApprovedForAll",
      "outputs": [
        {
          "internalType": "bool",
          "name": "",
          "type": "bool"
        }
      ],
      "stateMutability": "view",
      "type": "function"
    },
    {
      "inputs": [],
      "name": "name",
      "outputs": [
        {
          "internalType": "string",
          "name": "",
          "type": "string"
        }
      ],
      "stateMutability": "view",
      "type": "function"
    },
    {
      "inputs": [
        {
          "internalType": "address",
          "name": "owner",
          "type": "address"
        }
      ],
      "name": "nonces",
      "outputs": [
        {
          "internalType": "uint256",
          "name": "",
          "type": "uint256"
        }
      ],
      "stateMutability": "view",
      "type": "function"
    },
    {
      "inputs": [],
      "name": "owner",
      "outputs": [
        {
          "internalType": "address",
          "name": "",
          "type": "address"
        }
      ],
      "stateMutability": "view",
      "type": "function"
    },
    {
      "inputs": [
        {
          "internalType": "uint256",
          "name": "tokenId",
          "type": "uint256"
        }
      ],
      "name": "ownerOf",
      "outputs": [
        {
          "internalType": "address",
          "name": "",
          "type": "address"
        }
      ],
      "stateMutability": "view",
      "type": "function"
    },
    {
      "inputs": [],
      "name": "renounceOwnership",
      "outputs": [],
      "stateMutability": "nonpayable",
      "type": "function"
    },
    {
      "inputs": [
        {
          "internalType": "address",
          "name": "to",
          "type": "address"
        },
        {
          "internalType": "string",
          "name": "uri",
          "type": "string"
        }
      ],
      "name": "safeMint",
      "outputs": [
        {
          "internalType": "uint256",
          "name": "",
          "type": "uint256"
        }
      ],
      "stateMutability": "nonpayable",
      "type": "function"
    },
    {
      "inputs": [
        {
          "internalType": "address",
          "name": "from",
          "type": "address"
        },
        {
          "internalType": "address",
          "name": "to",
          "type": "address"
        },
        {
          "internalType": "uint256",
          "name": "tokenId",
          "type": "uint256"
        }
      ],
      "name": "safeTransferFrom",
      "outputs": [],
      "stateMutability": "nonpayable",
      "type": "function"
    },
    {
      "inputs": [
        {
          "internalType": "address",
          "name": "from",
          "type": "address"
        },
        {
          "internalType": "address",
          "name": "to",
          "type": "address"
        },
        {
          "internalType": "uint256",
          "name": "tokenId",
          "type": "uint256"
        },
        {
          "internalType": "bytes",
          "name": "data",
          "type": "bytes"
        }
      ],
      "name": "safeTransferFrom",
      "outputs": [],
      "stateMutability": "nonpayable",
      "type": "function"
    },
    {
      "inputs": [
        {
          "internalType": "address",
          "name": "operator",
          "type": "address"
        },
        {
          "internalType": "bool",
          "name": "approved",
          "type": "bool"
        }
      ],
      "name": "setApprovalForAll",
      "outputs": [],
      "stateMutability": "nonpayable",
      "type": "function"
    },
    {
      "inputs": [
        {
          "internalType": "bytes4",
          "name": "interfaceId",
          "type": "bytes4"
        }
      ],
      "name": "supportsInterface",
      "outputs": [
        {
          "internalType": "bool",
          "name": "",
          "type": "bool"
        }
      ],
      "stateMutability": "view",
      "type": "function"
    },
    {
      "inputs": [],
      "name": "symbol",
      "outputs": [
        {
          "internalType": "string",
          "name": "",
          "type": "string"
        }
      ],
      "stateMutability": "view",
      "type": "function"
    },
    {
      "inputs": [
        {
          "internalType": "uint256",
          "name": "tokenId",
          "type": "uint256"
        }
      ],
      "name": "tokenURI",
      "outputs": [
        {
          "internalType": "string",
          "name": "",
          "type": "string"
        }
      ],
      "stateMutability": "view",
      "type": "function"
    },
    {
      "inputs": [
        {
          "internalType": "address",
          "name": "from",
          "type": "address"
        },
        {
          "internalType": "address",
          "name": "to",
          "type": "address"
        },
        {
          "internalType": "uint256",
          "name": "tokenId",
          "type": "uint256"
        }
      ],
      "name": "transferFrom",
      "outputs": [],
      "stateMutability": "nonpayable",
      "type": "function"
    },
    {
      "inputs": [
        {
          "internalType": "address",
          "name": "newOwner",
          "type": "address"
        }
      ],
      "name": "transferOwnership",
      "outputs": [],
      "stateMutability": "nonpayable",
      "type": "function"
    }
  ],
  "bytecode": "0x6101406040523480156200001257600080fd5b506040518060400160405280600881526020016727232a2a27a5a2a760c11b815250604051806040016040528060018152602001603160f81b8152506040518060400160405280600881526020016727232a2a37b5b2b760c11b815250604051806040016040528060038152602001624e544b60e81b8152508160009080519060200190620000a3929190620001c7565b508051620000b9906001906020840190620001c7565b505050620000d6620000d06200017160201b60201c565b62000175565b815160208084019190912082518383012060e08290526101008190524660a0818152604080517f8b73c3c69bb8fe3d512ecc4cf759cc79239f7b179b0ffacaa9a75d522b39400f81880181905281830187905260608201869052608082019490945230818401528151808203909301835260c00190528051940193909320919290916080523060601b60c0526101205250620002aa92505050565b3390565b600780546001600160a01b038381166001600160a01b0319831681179093556040519116919082907f8be0079c531659141344cd1fd0a4f28419497f9722a3daafe3b4186f6b6457e090600090a35050565b828054620001d5906200026d565b90600052602060002090601f016020900481019282620001f9576000855562000244565b82601f106200021457805160ff191683800117855562000244565b8280016001018555821562000244579182015b828111156200024457825182559160200191906001019062000227565b506200025292915062000256565b5090565b5b8082111562000252576000815560010162000257565b600181811c908216806200028257607f821691505b60208210811415620002a457634e487b7160e01b600052602260045260246000fd5b50919050565b60805160a05160c05160601c60e05161010051610120516125e4620002fd6000396000610db301526000610e0201526000610ddd01526000610d3601526000610d6001526000610d8a01526125e46000f3fe608060405234801561001057600080fd5b50600436106101735760003560e01c8063715018a6116100de578063a22cb46511610097578063c87b56dd11610071578063c87b56dd1461033c578063d204c45e1461034f578063e985e9c514610362578063f2fde38b1461039e57600080fd5b8063a22cb46514610303578063b88d4fde14610316578063c3cda5201461032957600080fd5b8063715018a6146102a95780637ecebe00146102b15780638da5cb5b146102c45780638e539e8c146102d557806395d89b41146102e85780639ab24eb0146102f057600080fd5b80633a46b1a8116101305780633a46b1a81461021e57806342842e0e14610231578063587cde1e146102445780635c19a95c146102705780636352211e1461028357806370a082311461029657600080fd5b806301ffc9a71461017857806306fdde03146101a0578063081812fc146101b5578063095ea7b3146101e057806323b872dd146101f55780633644e51514610208575b600080fd5b61018b6101863660046122e8565b6103b1565b60405190151581526020015b60405180910390f35b6101a8610403565b60405161019791906123d0565b6101c86101c3366004612320565b610495565b6040516001600160a01b039091168152602001610197565b6101f36101ee366004612261565b6104bc565b005b6101f3610203366004612114565b6105d7565b610210610608565b604051908152602001610197565b61021061022c366004612261565b610617565b6101f361023f366004612114565b610640565b6101c86102523660046120c8565b6001600160a01b039081166000908152600860205260409020541690565b6101f361027e3660046120c8565b61065b565b6101c8610291366004612320565b61066a565b6102106102a43660046120c8565b6106ca565b6101f3610750565b6102106102bf3660046120c8565b610764565b6007546001600160a01b03166101c8565b6102106102e3366004612320565b610782565b6101a86107de565b6102106102fe3660046120c8565b6107ed565b6101f36103113660046121c8565b61080e565b6101f361032436600461214f565b610819565b6101f361033736600461228a565b610851565b6101a861034a366004612320565b61097e565b61021061035d366004612202565b610989565b61018b6103703660046120e2565b6001600160a01b03918216600090815260056020908152604080832093909416825291909152205460ff1690565b6101f36103ac3660046120c8565b6109c2565b60006001600160e01b031982166380ac58cd60e01b14806103e257506001600160e01b03198216635b5e139f60e01b145b806103fd57506301ffc9a760e01b6001600160e01b03198316145b92915050565b606060008054610412906124f2565b80601f016020809104026020016040519081016040528092919081815260200182805461043e906124f2565b801561048b5780601f106104605761010080835404028352916020019161048b565b820191906000526020600020905b81548152906001019060200180831161046e57829003601f168201915b5050505050905090565b60006104a082610a3b565b506000908152600460205260409020546001600160a01b031690565b60006104c78261066a565b9050806001600160a01b0316836001600160a01b0316141561053a5760405162461bcd60e51b815260206004820152602160248201527f4552433732313a20617070726f76616c20746f2063757272656e74206f776e656044820152603960f91b60648201526084015b60405180910390fd5b336001600160a01b038216148061055657506105568133610370565b6105c85760405162461bcd60e51b815260206004820152603e60248201527f4552433732313a20617070726f76652063616c6c6572206973206e6f7420746f60448201527f6b656e206f776e6572206e6f7220617070726f76656420666f7220616c6c00006064820152608401610531565b6105d28383610a9a565b505050565b6105e13382610b08565b6105fd5760405162461bcd60e51b815260040161053190612435565b6105d2838383610b87565b6000610612610d29565b905090565b6001600160a01b03821660009081526009602052604081206106399083610e50565b9392505050565b6105d283838360405180602001604052806000815250610819565b336106668183610f7b565b5050565b6000818152600260205260408120546001600160a01b0316806103fd5760405162461bcd60e51b8152602060048201526018602482015277115490cdcc8c4e881a5b9d985b1a59081d1bdad95b88125160421b6044820152606401610531565b60006001600160a01b0382166107345760405162461bcd60e51b815260206004820152602960248201527f4552433732313a2061646472657373207a65726f206973206e6f7420612076616044820152683634b21037bbb732b960b91b6064820152608401610531565b506001600160a01b031660009081526003602052604090205490565b610758610fed565b6107626000611047565b565b6001600160a01b0381166000908152600b60205260408120546103fd565b60004382106107d35760405162461bcd60e51b815260206004820152601a60248201527f566f7465733a20626c6f636b206e6f7420796574206d696e65640000000000006044820152606401610531565b6103fd600a83610e50565b606060018054610412906124f2565b6001600160a01b03811660009081526009602052604081206103fd90611099565b610666338383611103565b6108233383610b08565b61083f5760405162461bcd60e51b815260040161053190612435565b61084b848484846111d2565b50505050565b834211156108a15760405162461bcd60e51b815260206004820152601860248201527f566f7465733a207369676e6174757265206578706972656400000000000000006044820152606401610531565b604080517fe48329057bfd03d55e49b547132e39cffd9c1820ad7b9d4c5307691425d15adf60208201526001600160a01b03881691810191909152606081018690526080810185905260009061091b906109139060a00160405160208183030381529060405280519060200120611205565b858585611253565b90506109268161127b565b861461096b5760405162461bcd60e51b8152602060048201526014602482015273566f7465733a20696e76616c6964206e6f6e636560601b6044820152606401610531565b6109758188610f7b565b50505050505050565b60606103fd826112a3565b6000610993610fed565b600061099e600c5490565b90506109ae600c80546001019055565b6109b884826113ac565b61063981846113c6565b6109ca610fed565b6001600160a01b038116610a2f5760405162461bcd60e51b815260206004820152602660248201527f4f776e61626c653a206e6577206f776e657220697320746865207a65726f206160448201526564647265737360d01b6064820152608401610531565b610a3881611047565b50565b6000818152600260205260409020546001600160a01b0316610a385760405162461bcd60e51b8152602060048201526018602482015277115490cdcc8c4e881a5b9d985b1a59081d1bdad95b88125160421b6044820152606401610531565b600081815260046020526040902080546001600160a01b0319166001600160a01b0384169081179091558190610acf8261066a565b6001600160a01b03167f8c5be1e5ebec7d5bd14f71427d1e84f3dd0314c0f7b2291e5b200ac8c7c3b92560405160405180910390a45050565b600080610b148361066a565b9050806001600160a01b0316846001600160a01b03161480610b5b57506001600160a01b0380821660009081526005602090815260408083209388168352929052205460ff165b80610b7f5750836001600160a01b0316610b7484610495565b6001600160a01b0316145b949350505050565b826001600160a01b0316610b9a8261066a565b6001600160a01b031614610bfe5760405162461bcd60e51b815260206004820152602560248201527f4552433732313a207472616e736665722066726f6d20696e636f72726563742060448201526437bbb732b960d91b6064820152608401610531565b6001600160a01b038216610c605760405162461bcd60e51b8152602060048201526024808201527f4552433732313a207472616e7366657220746f20746865207a65726f206164646044820152637265737360e01b6064820152608401610531565b610c6b600082610a9a565b6001600160a01b0383166000908152600360205260408120805460019290610c949084906124af565b90915550506001600160a01b0382166000908152600360205260408120805460019290610cc2908490612483565b909155505060008181526002602052604080822080546001600160a01b0319166001600160a01b0386811691821790925591518493918716917fddf252ad1be2c89b69c2b068fc378daa952ba7f163c4a11628f55a4df523b3ef91a46105d2838383611460565b6000306001600160a01b037f000000000000000000000000000000000000000000000000000000000000000016148015610d8257507f000000000000000000000000000000000000000000000000000000000000000046145b15610dac57507f000000000000000000000000000000000000000000000000000000000000000090565b50604080517f00000000000000000000000000000000000000000000000000000000000000006020808301919091527f0000000000000000000000000000000000000000000000000000000000000000828401527f000000000000000000000000000000000000000000000000000000000000000060608301524660808301523060a0808401919091528351808403909101815260c0909201909252805191012090565b6000438210610ea15760405162461bcd60e51b815260206004820181905260248201527f436865636b706f696e74733a20626c6f636b206e6f7420796574206d696e65646044820152606401610531565b825460005b81811015610f14576000610eba828461146b565b905084866000018281548110610ee057634e487b7160e01b600052603260045260246000fd5b60009182526020909120015463ffffffff161115610f0057809250610f0e565b610f0b816001612483565b91505b50610ea6565b8115610f665784610f266001846124af565b81548110610f4457634e487b7160e01b600052603260045260246000fd5b60009182526020909120015464010000000090046001600160e01b0316610f69565b60005b6001600160e01b031695945050505050565b6001600160a01b0382811660008181526008602052604080822080548686166001600160a01b0319821681179092559151919094169392849290917f3134e8a2e6d97e929a7e54011ea5485d7d196dd5f0ba4d4ef95803e8e3fc257f9190a46105d28183610fe886611486565b611491565b6007546001600160a01b031633146107625760405162461bcd60e51b815260206004820181905260248201527f4f776e61626c653a2063616c6c6572206973206e6f7420746865206f776e65726044820152606401610531565b600780546001600160a01b038381166001600160a01b0319831681179093556040519116919082907f8be0079c531659141344cd1fd0a4f28419497f9722a3daafe3b4186f6b6457e090600090a35050565b805460009080156110f057826110b06001836124af565b815481106110ce57634e487b7160e01b600052603260045260246000fd5b60009182526020909120015464010000000090046001600160e01b03166110f3565b60005b6001600160e01b03169392505050565b816001600160a01b0316836001600160a01b031614156111655760405162461bcd60e51b815260206004820152601960248201527f4552433732313a20617070726f766520746f2063616c6c6572000000000000006044820152606401610531565b6001600160a01b03838116600081815260056020908152604080832094871680845294825291829020805460ff191686151590811790915591519182527f17307eab39ab6107e8899845ad3d59bd9653f200f220920489ca2b5937696c31910160405180910390a3505050565b6111dd848484610b87565b6111e9848484846115ce565b61084b5760405162461bcd60e51b8152600401610531906123e3565b60006103fd611212610d29565b8360405161190160f01b6020820152602281018390526042810182905260009060620160405160208183030381529060405280519060200120905092915050565b6000806000611264878787876116d8565b91509150611271816117c5565b5095945050505050565b6001600160a01b0381166000908152600b602052604090208054600181018255905b50919050565b60606112ae82610a3b565b600082815260066020526040812080546112c7906124f2565b80601f01602080910402602001604051908101604052809291908181526020018280546112f3906124f2565b80156113405780601f1061131557610100808354040283529160200191611340565b820191906000526020600020905b81548152906001019060200180831161132357829003601f168201915b50505050509050600061135e60408051602081019091526000815290565b9050805160001415611371575092915050565b8151156113a357808260405160200161138b929190612364565b60405160208183030381529060405292505050919050565b610b7f846119c6565b610666828260405180602001604052806000815250611a39565b6000828152600260205260409020546001600160a01b03166114415760405162461bcd60e51b815260206004820152602e60248201527f45524337323155524953746f726167653a2055524920736574206f66206e6f6e60448201526d32bc34b9ba32b73a103a37b5b2b760911b6064820152608401610531565b600082815260066020908152604090912082516105d292840190611fa6565b6105d2838383611a6c565b600061147a600284841861249b565b61063990848416612483565b60006103fd826106ca565b816001600160a01b0316836001600160a01b0316141580156114b35750600081115b156105d2576001600160a01b03831615611541576001600160a01b038316600090815260096020526040812081906114ee90611a7885611a84565b91509150846001600160a01b03167fdec2bacdd2f05b59de34da9b523dff8be42e5e38e818c82fdb0bae774387a7248383604051611536929190918252602082015260400190565b60405180910390a250505b6001600160a01b038216156105d2576001600160a01b0382166000908152600960205260408120819061157790611ab285611a84565b91509150836001600160a01b03167fdec2bacdd2f05b59de34da9b523dff8be42e5e38e818c82fdb0bae774387a72483836040516115bf929190918252602082015260400190565b60405180910390a25050505050565b60006001600160a01b0384163b156116d057604051630a85bd0160e11b81526001600160a01b0385169063150b7a0290611612903390899088908890600401612393565b602060405180830381600087803b15801561162c57600080fd5b505af192505050801561165c575060408051601f3d908101601f1916820190925261165991810190612304565b60015b6116b6573d80801561168a576040519150601f19603f3d011682016040523d82523d6000602084013e61168f565b606091505b5080516116ae5760405162461bcd60e51b8152600401610531906123e3565b805181602001fd5b6001600160e01b031916630a85bd0160e11b149050610b7f565b506001610b7f565b6000807f7fffffffffffffffffffffffffffffff5d576e7357a4501ddfe92f46681b20a083111561170f57506000905060036117bc565b8460ff16601b1415801561172757508460ff16601c14155b1561173857506000905060046117bc565b6040805160008082526020820180845289905260ff881692820192909252606081018690526080810185905260019060a0016020604051602081039080840390855afa15801561178c573d6000803e3d6000fd5b5050604051601f1901519150506001600160a01b0381166117b5576000600192509250506117bc565b9150600090505b94509492505050565b60008160048111156117e757634e487b7160e01b600052602160045260246000fd5b14156117f05750565b600181600481111561181257634e487b7160e01b600052602160045260246000fd5b14156118605760405162461bcd60e51b815260206004820152601860248201527f45434453413a20696e76616c6964207369676e617475726500000000000000006044820152606401610531565b600281600481111561188257634e487b7160e01b600052602160045260246000fd5b14156118d05760405162461bcd60e51b815260206004820152601f60248201527f45434453413a20696e76616c6964207369676e6174757265206c656e677468006044820152606401610531565b60038160048111156118f257634e487b7160e01b600052602160045260246000fd5b141561194b5760405162461bcd60e51b815260206004820152602260248201527f45434453413a20696e76616c6964207369676e6174757265202773272076616c604482015261756560f01b6064820152608401610531565b600481600481111561196d57634e487b7160e01b600052602160045260246000fd5b1415610a385760405162461bcd60e51b815260206004820152602260248201527f45434453413a20696e76616c6964207369676e6174757265202776272076616c604482015261756560f01b6064820152608401610531565b60606119d182610a3b565b60006119e860408051602081019091526000815290565b90506000815111611a085760405180602001604052806000815250610639565b80611a1284611abe565b604051602001611a23929190612364565b6040516020818303038152906040529392505050565b611a438383611bd8565b611a5060008484846115ce565b6105d25760405162461bcd60e51b8152600401610531906123e3565b6105d283836001611d22565b600061063982846124af565b600080611aa685611aa1611a9788611099565b868863ffffffff16565b611d92565b91509150935093915050565b60006106398284612483565b606081611ae25750506040805180820190915260018152600360fc1b602082015290565b8160005b8115611b0c5780611af681612527565b9150611b059050600a8361249b565b9150611ae6565b60008167ffffffffffffffff811115611b3557634e487b7160e01b600052604160045260246000fd5b6040519080825280601f01601f191660200182016040528015611b5f576020820181803683370190505b5090505b8415610b7f57611b746001836124af565b9150611b81600a86612542565b611b8c906030612483565b60f81b818381518110611baf57634e487b7160e01b600052603260045260246000fd5b60200101906001600160f81b031916908160001a905350611bd1600a8661249b565b9450611b63565b6001600160a01b038216611c2e5760405162461bcd60e51b815260206004820181905260248201527f4552433732313a206d696e7420746f20746865207a65726f20616464726573736044820152606401610531565b6000818152600260205260409020546001600160a01b031615611c935760405162461bcd60e51b815260206004820152601c60248201527f4552433732313a20746f6b656e20616c7265616479206d696e746564000000006044820152606401610531565b6001600160a01b0382166000908152600360205260408120805460019290611cbc908490612483565b909155505060008181526002602052604080822080546001600160a01b0319166001600160a01b03861690811790915590518392907fddf252ad1be2c89b69c2b068fc378daa952ba7f163c4a11628f55a4df523b3ef908290a461066660008383611460565b6001600160a01b038316611d4157611d3e600a611ab283611a84565b50505b6001600160a01b038216611d6057611d5d600a611a7883611a84565b50505b6001600160a01b038381166000908152600860205260408082205485841683529120546105d292918216911683611491565b8154600090819081611da386611099565b9050600082118015611def57504386611dbd6001856124af565b81548110611ddb57634e487b7160e01b600052603260045260246000fd5b60009182526020909120015463ffffffff16145b15611e5d57611dfd85611ed4565b86611e096001856124af565b81548110611e2757634e487b7160e01b600052603260045260246000fd5b9060005260206000200160000160046101000a8154816001600160e01b0302191690836001600160e01b03160217905550611ecb565b856000016040518060400160405280611e7543611f41565b63ffffffff168152602001611e8988611ed4565b6001600160e01b0390811690915282546001810184556000938452602093849020835194909301519091166401000000000263ffffffff909316929092179101555b95939450505050565b60006001600160e01b03821115611f3d5760405162461bcd60e51b815260206004820152602760248201527f53616665436173743a2076616c756520646f65736e27742066697420696e20326044820152663234206269747360c81b6064820152608401610531565b5090565b600063ffffffff821115611f3d5760405162461bcd60e51b815260206004820152602660248201527f53616665436173743a2076616c756520646f65736e27742066697420696e203360448201526532206269747360d01b6064820152608401610531565b828054611fb2906124f2565b90600052602060002090601f016020900481019282611fd4576000855561201a565b82601f10611fed57805160ff191683800117855561201a565b8280016001018555821561201a579182015b8281111561201a578251825591602001919060010190611fff565b50611f3d9291505b80821115611f3d5760008155600101612022565b600067ffffffffffffffff8084111561205157612051612582565b604051601f8501601f19908116603f0116810190828211818310171561207957612079612582565b8160405280935085815286868601111561209257600080fd5b858560208301376000602087830101525050509392505050565b80356001600160a01b03811681146120c357600080fd5b919050565b6000602082840312156120d9578081fd5b610639826120ac565b600080604083850312156120f4578081fd5b6120fd836120ac565b915061210b602084016120ac565b90509250929050565b600080600060608486031215612128578081fd5b612131846120ac565b925061213f602085016120ac565b9150604084013590509250925092565b60008060008060808587031215612164578081fd5b61216d856120ac565b935061217b602086016120ac565b925060408501359150606085013567ffffffffffffffff81111561219d578182fd5b8501601f810187136121ad578182fd5b6121bc87823560208401612036565b91505092959194509250565b600080604083850312156121da578182fd5b6121e3836120ac565b9150602083013580151581146121f7578182fd5b809150509250929050565b60008060408385031215612214578182fd5b61221d836120ac565b9150602083013567ffffffffffffffff811115612238578182fd5b8301601f81018513612248578182fd5b61225785823560208401612036565b9150509250929050565b60008060408385031215612273578182fd5b61227c836120ac565b946020939093013593505050565b60008060008060008060c087890312156122a2578182fd5b6122ab876120ac565b95506020870135945060408701359350606087013560ff811681146122ce578283fd5b9598949750929560808101359460a0909101359350915050565b6000602082840312156122f9578081fd5b813561063981612598565b600060208284031215612315578081fd5b815161063981612598565b600060208284031215612331578081fd5b5035919050565b600081518084526123508160208601602086016124c6565b601f01601f19169290920160200192915050565b600083516123768184602088016124c6565b83519083019061238a8183602088016124c6565b01949350505050565b6001600160a01b03858116825284166020820152604081018390526080606082018190526000906123c690830184612338565b9695505050505050565b6020815260006106396020830184612338565b60208082526032908201527f4552433732313a207472616e7366657220746f206e6f6e20455243373231526560408201527131b2b4bb32b91034b6b83632b6b2b73a32b960711b606082015260800190565b6020808252602e908201527f4552433732313a2063616c6c6572206973206e6f7420746f6b656e206f776e6560408201526d1c881b9bdc88185c1c1c9bdd995960921b606082015260800190565b6000821982111561249657612496612556565b500190565b6000826124aa576124aa61256c565b500490565b6000828210156124c1576124c1612556565b500390565b60005b838110156124e15781810151838201526020016124c9565b8381111561084b5750506000910152565b600181811c9082168061250657607f821691505b6020821081141561129d57634e487b7160e01b600052602260045260246000fd5b600060001982141561253b5761253b612556565b5060010190565b6000826125515761255161256c565b500690565b634e487b7160e01b600052601160045260246000fd5b634e487b7160e01b600052601260045260246000fd5b634e487b7160e01b600052604160045260246000fd5b6001600160e01b031981168114610a3857600080fdfea264697066735822122087606154cdf692550d2f7abae3c4499d14e165bb4a2441166600f03420a58edb64736f6c63430008040033",
  "linkReferences": {},
  "deployedLinkReferences": {}
}