{
  "_format": "hh-sol-artifact-1",
  "contractName": "treasury",
  "sourceName": "contracts/Treasury.sol",
  "abi": [
    {
      "inputs": [],
      "stateMutability": "nonpayable",
      "type": "constructor"
    },
    {
      "anonymous": false,
      "inputs": [
        {
          "indexed": true,
          "internalType": "address",
          "name": "previousOwner",
          "type": "address"
        },
        {
          "indexed": true,
          "internalType": "address",
          "name": "newOwner",
          "type": "address"
        }
      ],
      "name": "OwnershipTransferred",
      "type": "event"
    },
    {
      "inputs": [],
      "name": "balance",
      "outputs": [
        {
          "internalType": "uint256",
          "name": "",
          "type": "uint256"
        }
      ],
      "stateMutability": "view",
      "type": "function"
    },
    {
      "inputs": [],
      "name": "owner",
      "outputs": [
        {
          "internalType": "address",
          "name": "",
          "type": "address"
        }
      ],
      "stateMutability": "view",
      "type": "function"
    },
    {
      "inputs": [],
      "name": "renounceOwnership",
      "outputs": [],
      "stateMutability": "nonpayable",
      "type": "function"
    },
    {
      "inputs": [
        {
          "internalType": "address",
          "name": "newOwner",
          "type": "address"
        }
      ],
      "name": "transferOwnership",
      "outputs": [],
      "stateMutability": "nonpayable",
      "type": "function"
    },
    {
      "inputs": [
        {
          "internalType": "address",
          "name": "pay",
          "type": "address"
        },
        {
          "internalType": "uint256",
          "name": "amount",
          "type": "uint256"
        }
      ],
      "name": "withdrawFunds",
      "outputs": [],
      "stateMutability": "nonpayable",
      "type": "function"
    },
    {
      "stateMutability": "payable",
      "type": "receive"
    }
  ],
  "bytecode": "0x608060405234801561001057600080fd5b5061001a3361001f565b61006f565b600080546001600160a01b038381166001600160a01b0319831681178455604051919092169283917f8be0079c531659141344cd1fd0a4f28419497f9722a3daafe3b4186f6b6457e09190a35050565b6103148061007e6000396000f3fe60806040526004361061004e5760003560e01c8063715018a61461005a5780638da5cb5b14610071578063b69ef8a81461009e578063c1075329146100b9578063f2fde38b146100d957600080fd5b3661005557005b600080fd5b34801561006657600080fd5b5061006f6100f9565b005b34801561007d57600080fd5b506000546040516001600160a01b0390911681526020015b60405180910390f35b3480156100aa57600080fd5b50604051478152602001610095565b3480156100c557600080fd5b5061006f6100d43660046102b5565b61010d565b3480156100e557600080fd5b5061006f6100f4366004610294565b610150565b6101016101ce565b61010b6000610228565b565b6101156101ce565b6040516001600160a01b0383169082156108fc029083906000818181858888f1935050505015801561014b573d6000803e3d6000fd5b505050565b6101586101ce565b6001600160a01b0381166101c25760405162461bcd60e51b815260206004820152602660248201527f4f776e61626c653a206e6577206f776e657220697320746865207a65726f206160448201526564647265737360d01b60648201526084015b60405180910390fd5b6101cb81610228565b50565b6000546001600160a01b0316331461010b5760405162461bcd60e51b815260206004820181905260248201527f4f776e61626c653a2063616c6c6572206973206e6f7420746865206f776e657260448201526064016101b9565b600080546001600160a01b038381166001600160a01b0319831681178455604051919092169283917f8be0079c531659141344cd1fd0a4f28419497f9722a3daafe3b4186f6b6457e09190a35050565b80356001600160a01b038116811461028f57600080fd5b919050565b6000602082840312156102a5578081fd5b6102ae82610278565b9392505050565b600080604083850312156102c7578081fd5b6102d083610278565b94602093909301359350505056fea26469706673582212200d383c8ab30de5a586ae9861e0041c51c11f8baa5cadd2a75b4429b442dd410064736f6c63430008040033",
  "linkReferences": {},
  "deployedLinkReferences": {}
}